{
  "contractName": "SleekMarketplace",
  "abi": [
    {
      "anonymous": false,
      "inputs": [
        {
          "indexed": false,
          "internalType": "uint256",
          "name": "id",
          "type": "uint256"
        },
        {
          "indexed": false,
          "internalType": "uint256",
          "name": "tokenId",
          "type": "uint256"
        },
        {
          "indexed": false,
          "internalType": "address",
          "name": "tokenAddress",
          "type": "address"
        },
        {
          "indexed": false,
          "internalType": "uint256",
          "name": "askingPrice",
          "type": "uint256"
        }
      ],
      "name": "itemAdded",
      "type": "event"
    },
    {
      "anonymous": false,
      "inputs": [
        {
          "indexed": false,
          "internalType": "uint256",
          "name": "id",
          "type": "uint256"
        },
        {
          "indexed": false,
          "internalType": "address",
          "name": "buyer",
          "type": "address"
        },
        {
          "indexed": false,
          "internalType": "uint256",
          "name": "askingPrice",
          "type": "uint256"
        }
      ],
      "name": "itemSold",
      "type": "event"
    },
    {
      "inputs": [
        {
          "internalType": "uint256",
          "name": "",
          "type": "uint256"
        }
      ],
      "name": "itemsForSale",
      "outputs": [
        {
          "internalType": "uint256",
          "name": "id",
          "type": "uint256"
        },
        {
          "internalType": "address",
          "name": "tokenAddress",
          "type": "address"
        },
        {
          "internalType": "uint256",
          "name": "tokenId",
          "type": "uint256"
        },
        {
          "internalType": "address payable",
          "name": "seller",
          "type": "address"
        },
        {
          "internalType": "uint256",
          "name": "askingPrice",
          "type": "uint256"
        },
        {
          "internalType": "bool",
          "name": "isSold",
          "type": "bool"
        }
      ],
      "stateMutability": "view",
      "type": "function",
      "constant": true
    },
    {
      "inputs": [
        {
          "internalType": "uint256",
          "name": "tokenId",
          "type": "uint256"
        },
        {
          "internalType": "address",
          "name": "tokenAddress",
          "type": "address"
        },
        {
          "internalType": "uint256",
          "name": "askingPrice",
          "type": "uint256"
        }
      ],
      "name": "addItemToMarket",
      "outputs": [
        {
          "internalType": "uint256",
          "name": "",
          "type": "uint256"
        }
      ],
      "stateMutability": "nonpayable",
      "type": "function"
    },
    {
      "inputs": [
        {
          "internalType": "uint256",
          "name": "id",
          "type": "uint256"
        }
      ],
      "name": "buyItem",
      "outputs": [],
      "stateMutability": "payable",
      "type": "function",
      "payable": true
    }
  ],
  "bytecode": "0x608060405234801561001057600080fd5b5061150e806100206000396000f3fe6080604052600436106100345760003560e01c8063092d0afc146100395780634abc22021461007b578063e7fb74c7146100b8575b600080fd5b34801561004557600080fd5b50610060600480360381019061005b9190610f77565b6100d4565b60405161007296959493929190611358565b60405180910390f35b34801561008757600080fd5b506100a2600480360381019061009d9190610fa0565b61016d565b6040516100af9190611306565b60405180910390f35b6100d260048036038101906100cd9190610f77565b610636565b005b600081815481106100e457600080fd5b90600052602060002090600602016000915090508060000154908060010160009054906101000a900473ffffffffffffffffffffffffffffffffffffffff16908060020154908060030160009054906101000a900473ffffffffffffffffffffffffffffffffffffffff16908060040154908060050160009054906101000a900460ff16905086565b6000828460008290503373ffffffffffffffffffffffffffffffffffffffff168173ffffffffffffffffffffffffffffffffffffffff16636352211e846040518263ffffffff1660e01b81526004016101c69190611306565b60206040518083038186803b1580156101de57600080fd5b505afa1580156101f2573d6000803e3d6000fd5b505050506040513d601f19601f820116820180604052508101906102169190610f4e565b73ffffffffffffffffffffffffffffffffffffffff161461023657600080fd5b858760008290503073ffffffffffffffffffffffffffffffffffffffff168173ffffffffffffffffffffffffffffffffffffffff1663081812fc846040518263ffffffff1660e01b815260040161028d9190611306565b60206040518083038186803b1580156102a557600080fd5b505afa1580156102b9573d6000803e3d6000fd5b505050506040513d601f19601f820116820180604052508101906102dd9190610f4e565b73ffffffffffffffffffffffffffffffffffffffff16146102fd57600080fd5b60001515600160008b73ffffffffffffffffffffffffffffffffffffffff1673ffffffffffffffffffffffffffffffffffffffff16815260200190815260200160002060008c815260200190815260200160002060009054906101000a900460ff161515146103a1576040517f08c379a000000000000000000000000000000000000000000000000000000000815260040161039890611246565b60405180910390fd5b60008080549050905060006040518060c001604052808381526020018c73ffffffffffffffffffffffffffffffffffffffff1681526020018d81526020013373ffffffffffffffffffffffffffffffffffffffff1681526020018b81526020016000151581525090806001815401808255809150506001900390600052602060002090600602016000909190919091506000820151816000015560208201518160010160006101000a81548173ffffffffffffffffffffffffffffffffffffffff021916908373ffffffffffffffffffffffffffffffffffffffff1602179055506040820151816002015560608201518160030160006101000a81548173ffffffffffffffffffffffffffffffffffffffff021916908373ffffffffffffffffffffffffffffffffffffffff1602179055506080820151816004015560a08201518160050160006101000a81548160ff021916908315150217905550505060018060008c73ffffffffffffffffffffffffffffffffffffffff1673ffffffffffffffffffffffffffffffffffffffff16815260200190815260200160002060008d815260200190815260200160002060006101000a81548160ff02191690831515021790555080600082815481106105a2577f4e487b7100000000000000000000000000000000000000000000000000000000600052603260045260246000fd5b906000526020600020906006020160000154146105e8577f4e487b7100000000000000000000000000000000000000000000000000000000600052600160045260246000fd5b7fd3742413e0092c98517699ed9f8567218c740a5a265a7a986d9430d597937522818c8c8c60405161061d94939291906113b9565b60405180910390a1809750505050505050509392505050565b806000805490508110801561069557508060008281548110610681577f4e487b7100000000000000000000000000000000000000000000000000000000600052603260045260246000fd5b906000526020600020906006020160000154145b6106d4576040517f08c379a00000000000000000000000000000000000000000000000000000000081526004016106cb906112c6565b60405180910390fd5b816000151560008281548110610713577f4e487b7100000000000000000000000000000000000000000000000000000000600052603260045260246000fd5b906000526020600020906006020160050160009054906101000a900460ff16151514610774576040517f08c379a000000000000000000000000000000000000000000000000000000000815260040161076b906112e6565b60405180910390fd5b600083815481106107ae577f4e487b7100000000000000000000000000000000000000000000000000000000600052603260045260246000fd5b906000526020600020906006020160010160009054906101000a900473ffffffffffffffffffffffffffffffffffffffff166000848154811061081a577f4e487b7100000000000000000000000000000000000000000000000000000000600052603260045260246000fd5b90600052602060002090600602016002015460008290503073ffffffffffffffffffffffffffffffffffffffff168173ffffffffffffffffffffffffffffffffffffffff1663081812fc846040518263ffffffff1660e01b81526004016108819190611306565b60206040518083038186803b15801561089957600080fd5b505afa1580156108ad573d6000803e3d6000fd5b505050506040513d601f19601f820116820180604052508101906108d19190610f4e565b73ffffffffffffffffffffffffffffffffffffffff16146108f157600080fd5b6000868154811061092b577f4e487b7100000000000000000000000000000000000000000000000000000000600052603260045260246000fd5b90600052602060002090600602016004015434101561097f576040517f08c379a000000000000000000000000000000000000000000000000000000000815260040161097690611266565b60405180910390fd5b600086815481106109b9577f4e487b7100000000000000000000000000000000000000000000000000000000600052603260045260246000fd5b906000526020600020906006020160030160009054906101000a900473ffffffffffffffffffffffffffffffffffffffff1673ffffffffffffffffffffffffffffffffffffffff163373ffffffffffffffffffffffffffffffffffffffff161415610a59576040517f08c379a0000000000000000000000000000000000000000000000000000000008152600401610a50906112a6565b60405180910390fd5b600160008781548110610a95577f4e487b7100000000000000000000000000000000000000000000000000000000600052603260045260246000fd5b906000526020600020906006020160050160006101000a81548160ff021916908315150217905550600060016000808981548110610afc577f4e487b7100000000000000000000000000000000000000000000000000000000600052603260045260246000fd5b906000526020600020906006020160010160009054906101000a900473ffffffffffffffffffffffffffffffffffffffff1673ffffffffffffffffffffffffffffffffffffffff1673ffffffffffffffffffffffffffffffffffffffff1681526020019081526020016000206000808981548110610ba3577f4e487b7100000000000000000000000000000000000000000000000000000000600052603260045260246000fd5b906000526020600020906006020160020154815260200190815260200160002060006101000a81548160ff02191690831515021790555060008681548110610c14577f4e487b7100000000000000000000000000000000000000000000000000000000600052603260045260246000fd5b906000526020600020906006020160010160009054906101000a900473ffffffffffffffffffffffffffffffffffffffff1673ffffffffffffffffffffffffffffffffffffffff166342842e0e60008881548110610c9b577f4e487b7100000000000000000000000000000000000000000000000000000000600052603260045260246000fd5b906000526020600020906006020160030160009054906101000a900473ffffffffffffffffffffffffffffffffffffffff163360008a81548110610d08577f4e487b7100000000000000000000000000000000000000000000000000000000600052603260045260246000fd5b9060005260206000209060060201600201546040518463ffffffff1660e01b8152600401610d389392919061120f565b600060405180830381600087803b158015610d5257600080fd5b505af1158015610d66573d6000803e3d6000fd5b505050506000808781548110610da5577f4e487b7100000000000000000000000000000000000000000000000000000000600052603260045260246000fd5b906000526020600020906006020160030160009054906101000a900473ffffffffffffffffffffffffffffffffffffffff1673ffffffffffffffffffffffffffffffffffffffff1634604051610dfa906111fa565b60006040518083038185875af1925050503d8060008114610e37576040519150601f19603f3d011682016040523d82523d6000602084013e610e3c565b606091505b5050905080610e80576040517f08c379a0000000000000000000000000000000000000000000000000000000008152600401610e7790611286565b60405180910390fd5b7f8164c6f8917e418c49813e4586897c7067de5a886aa1bea980cd11fa57d48264873360008a81548110610edd577f4e487b7100000000000000000000000000000000000000000000000000000000600052603260045260246000fd5b906000526020600020906006020160040154604051610efe93929190611321565b60405180910390a150505050505050565b600081359050610f1e816114aa565b92915050565b600081519050610f33816114aa565b92915050565b600081359050610f48816114c1565b92915050565b600060208284031215610f6057600080fd5b6000610f6e84828501610f24565b91505092915050565b600060208284031215610f8957600080fd5b6000610f9784828501610f39565b91505092915050565b600080600060608486031215610fb557600080fd5b6000610fc386828701610f39565b9350506020610fd486828701610f0f565b9250506040610fe586828701610f39565b9150509250925092565b610ff881611474565b82525050565b6110078161142c565b82525050565b6110168161141a565b82525050565b6110258161143e565b82525050565b6000611038601883611409565b91507f4974656d20697320616c7265616479206f6e2073616c652100000000000000006000830152602082019050919050565b6000611078602e83611409565b91507f5468652073656e742076616c7565206973206c6f776572207468616e2074686560008301527f2061637475616c207072696365210000000000000000000000000000000000006020830152604082019050919050565b60006110de601c83611409565b91507f46756e64732063616c6c20746f2073656c6c6572206661696c656421000000006000830152602082019050919050565b600061111e601f83611409565b91507f596f752063616e206e6f742062757920796f7572206f776e20746f6b656e21006000830152602082019050919050565b600061115e601483611409565b91507f436f756c64206e6f742066696e64206974656d210000000000000000000000006000830152602082019050919050565b600061119e6000836113fe565b9150600082019050919050565b60006111b8601583611409565b91507f4974656d20697320616c726561647920736f6c642100000000000000000000006000830152602082019050919050565b6111f48161146a565b82525050565b600061120582611191565b9150819050919050565b60006060820190506112246000830186610fef565b611231602083018561100d565b61123e60408301846111eb565b949350505050565b6000602082019050818103600083015261125f8161102b565b9050919050565b6000602082019050818103600083015261127f8161106b565b9050919050565b6000602082019050818103600083015261129f816110d1565b9050919050565b600060208201905081810360008301526112bf81611111565b9050919050565b600060208201905081810360008301526112df81611151565b9050919050565b600060208201905081810360008301526112ff816111ab565b9050919050565b600060208201905061131b60008301846111eb565b92915050565b600060608201905061133660008301866111eb565b611343602083018561100d565b61135060408301846111eb565b949350505050565b600060c08201905061136d60008301896111eb565b61137a602083018861100d565b61138760408301876111eb565b6113946060830186610ffe565b6113a160808301856111eb565b6113ae60a083018461101c565b979650505050505050565b60006080820190506113ce60008301876111eb565b6113db60208301866111eb565b6113e8604083018561100d565b6113f560608301846111eb565b95945050505050565b600081905092915050565b600082825260208201905092915050565b60006114258261144a565b9050919050565b60006114378261144a565b9050919050565b60008115159050919050565b600073ffffffffffffffffffffffffffffffffffffffff82169050919050565b6000819050919050565b600061147f82611486565b9050919050565b600061149182611498565b9050919050565b60006114a38261144a565b9050919050565b6114b38161141a565b81146114be57600080fd5b50565b6114ca8161146a565b81146114d557600080fd5b5056fea264697066735822122077833e2ae1922c64d4dfb3359c0ad6003155d53ab53c98073219fd5c9bd9839b64736f6c63430008000033",
  "immutableReferences": {},
  "source": "pragma solidity ^0.8.0;\r\n\r\nimport \"@openzeppelin/contracts/token/ERC721/IERC721.sol\";\r\n\r\ncontract SleekMarketplace {\r\n    struct AuctionItem {\r\n        uint256 id;\r\n        address tokenAddress;\r\n        uint256 tokenId;\r\n        address payable seller;\r\n        uint256 askingPrice;\r\n        bool isSold;\r\n    }\r\n\r\n    AuctionItem[] public itemsForSale;\r\n    mapping(address => mapping(uint256 => bool)) activeItems; //Maps tokenaddress to id which points to isSold boolFlag\r\n\r\n    event itemAdded(\r\n        uint256 id,\r\n        uint256 tokenId,\r\n        address tokenAddress,\r\n        uint256 askingPrice\r\n    );\r\n    event itemSold(uint256 id, address buyer, uint256 askingPrice);\r\n\r\n    modifier OnlyItemOwner(address tokenAddress, uint256 tokenId) {\r\n        IERC721 tokenContract = IERC721(tokenAddress);\r\n        require(tokenContract.ownerOf(tokenId) == msg.sender);\r\n        _;\r\n    }\r\n\r\n    modifier HasTransferApproval(address tokenAddress, uint256 tokenId) {\r\n        IERC721 tokenContract = IERC721(tokenAddress);\r\n        require(tokenContract.getApproved(tokenId) == address(this));\r\n        _;\r\n    }\r\n\r\n    modifier ItemExists(uint256 id) {\r\n        require(\r\n            id < itemsForSale.length && itemsForSale[id].id == id,\r\n            \"Could not find item!\"\r\n        );\r\n        _;\r\n    }\r\n\r\n    modifier IsForSale(uint256 id) {\r\n        require(itemsForSale[id].isSold == false, \"Item is already sold!\");\r\n        _;\r\n    }\r\n\r\n    function addItemToMarket(\r\n        uint256 tokenId,\r\n        address tokenAddress,\r\n        uint256 askingPrice\r\n    )\r\n        external\r\n        OnlyItemOwner(tokenAddress, tokenId)\r\n        HasTransferApproval(tokenAddress, tokenId)\r\n        returns (uint256)\r\n    {\r\n        require(\r\n            activeItems[tokenAddress][tokenId] == false,\r\n            \"Item is already on sale!\"\r\n        );\r\n        uint256 newItemId = itemsForSale.length;\r\n        itemsForSale.push(\r\n            AuctionItem(\r\n                newItemId,\r\n                tokenAddress,\r\n                tokenId,\r\n                payable(msg.sender),\r\n                askingPrice,\r\n                false\r\n            )\r\n        );\r\n        activeItems[tokenAddress][tokenId] = true;\r\n\r\n        assert(itemsForSale[newItemId].id == newItemId);\r\n        emit itemAdded(newItemId, tokenId, tokenAddress, askingPrice);\r\n        return newItemId;\r\n    }\r\n\r\n    function buyItem(uint256 id)\r\n        external\r\n        payable\r\n        ItemExists(id)\r\n        IsForSale(id)\r\n        HasTransferApproval(\r\n            itemsForSale[id].tokenAddress,\r\n            itemsForSale[id].tokenId\r\n        )\r\n    {\r\n        require(\r\n            msg.value >= itemsForSale[id].askingPrice,\r\n            \"The sent value is lower than the actual price!\"\r\n        );\r\n        require(\r\n            msg.sender != itemsForSale[id].seller,\r\n            \"You can not buy your own token!\"\r\n        );\r\n\r\n        itemsForSale[id].isSold = true;\r\n        activeItems[itemsForSale[id].tokenAddress][\r\n            itemsForSale[id].tokenId\r\n        ] = false;\r\n        IERC721(itemsForSale[id].tokenAddress).safeTransferFrom(\r\n            itemsForSale[id].seller,\r\n            msg.sender,\r\n            itemsForSale[id].tokenId\r\n        );\r\n        (bool success, ) = itemsForSale[id].seller.call{value: msg.value}(\"\");\r\n        require(success, \"Funds call to seller failed!\");\r\n\r\n        emit itemSold(id, msg.sender, itemsForSale[id].askingPrice);\r\n    }\r\n}\r\n",
  "sourcePath": "D:\\mini-project\\sleekfrontend\\contracts\\contracts\\Marketplace.sol",
  "compiler": {
    "name": "solc",
    "version": "0.8.0+commit.c7dfd78e.Emscripten.clang"
  },
  "schemaVersion": "3.4.3",
  "updatedAt": "2021-09-27T07:03:14.974Z",
  "networkType": "ethereum",
  "devdoc": {
    "kind": "dev",
    "methods": {},
    "version": 1
  },
  "userdoc": {
    "kind": "user",
    "methods": {},
    "version": 1
  }
}